{"abi":[{"type":"function","name":"message","inputs":[],"outputs":[{"name":"","type":"string","internalType":"string"}],"stateMutability":"view"}],"bytecode":{"object":"0x60e0604052602b60808181529061030860a0395f9061001e90826100c8565b5034801561002a575f5ffd5b50610182565b634e487b7160e01b5f52604160045260245ffd5b600181811c9082168061005857607f821691505b60208210810361007657634e487b7160e01b5f52602260045260245ffd5b50919050565b601f8211156100c357805f5260205f20601f840160051c810160208510156100a15750805b601f840160051c820191505b818110156100c0575f81556001016100ad565b50505b505050565b81516001600160401b038111156100e1576100e1610030565b6100f5816100ef8454610044565b8461007c565b6020601f821160018114610127575f83156101105750848201515b5f19600385901b1c1916600184901b1784556100c0565b5f84815260208120601f198516915b828110156101565787850151825560209485019460019092019101610136565b508482101561017357868401515f19600387901b60f8161c191681555b50505050600190811b01905550565b6101798061018f5f395ff3fe608060405234801561000f575f5ffd5b5060043610610029575f3560e01c8063e21f37ce1461002d575b5f5ffd5b61003561004b565b60405161004291906100d6565b60405180910390f35b5f80546100579061010b565b80601f01602080910402602001604051908101604052809291908181526020018280546100839061010b565b80156100ce5780601f106100a5576101008083540402835291602001916100ce565b820191905f5260205f20905b8154815290600101906020018083116100b157829003601f168201915b505050505081565b602081525f82518060208401528060208501604085015e5f604082850101526040601f19601f83011684010191505092915050565b600181811c9082168061011f57607f821691505b60208210810361013d57634e487b7160e01b5f52602260045260245ffd5b5091905056fea26469706673582212203af902758c81b364b126401f5c35cd4b13abd0b401d6562a508193d0d1a0b3cb64736f6c634300081c003354686973206973206120706c616365686f6c64657220636f6e747261637420666f72204861636b626f742e","linkReferences":{}},"methodIdentifiers":{"message()":"e21f37ce"},"id":21}